{
  "contractName": "CommunityRewardsApprove",
  "abi": [
    {
      "inputs": [
        {
          "internalType": "contract IERC20",
          "name": "_token",
          "type": "address"
        },
        {
          "internalType": "address",
          "name": "_tokenWallet",
          "type": "address"
        }
      ],
      "stateMutability": "nonpayable",
      "type": "constructor"
    },
    {
      "anonymous": false,
      "inputs": [
        {
          "indexed": true,
          "internalType": "address",
          "name": "previousOwner",
          "type": "address"
        },
        {
          "indexed": true,
          "internalType": "address",
          "name": "newOwner",
          "type": "address"
        }
      ],
      "name": "OwnershipTransferred",
      "type": "event"
    },
    {
      "anonymous": false,
      "inputs": [
        {
          "indexed": false,
          "internalType": "address",
          "name": "wallet",
          "type": "address"
        },
        {
          "indexed": false,
          "internalType": "address",
          "name": "account",
          "type": "address"
        },
        {
          "indexed": false,
          "internalType": "uint256",
          "name": "amount",
          "type": "uint256"
        }
      ],
      "name": "releaseEvent",
      "type": "event"
    },
    {
      "inputs": [],
      "name": "owner",
      "outputs": [
        {
          "internalType": "address",
          "name": "",
          "type": "address"
        }
      ],
      "stateMutability": "view",
      "type": "function",
      "constant": true
    },
    {
      "inputs": [],
      "name": "renounceOwnership",
      "outputs": [],
      "stateMutability": "nonpayable",
      "type": "function"
    },
    {
      "inputs": [],
      "name": "token",
      "outputs": [
        {
          "internalType": "contract IERC20",
          "name": "",
          "type": "address"
        }
      ],
      "stateMutability": "view",
      "type": "function",
      "constant": true
    },
    {
      "inputs": [],
      "name": "tokenWallet",
      "outputs": [
        {
          "internalType": "address",
          "name": "",
          "type": "address"
        }
      ],
      "stateMutability": "view",
      "type": "function",
      "constant": true
    },
    {
      "inputs": [
        {
          "internalType": "address",
          "name": "newOwner",
          "type": "address"
        }
      ],
      "name": "transferOwnership",
      "outputs": [],
      "stateMutability": "nonpayable",
      "type": "function"
    },
    {
      "inputs": [],
      "name": "getMemberList",
      "outputs": [
        {
          "internalType": "address[]",
          "name": "",
          "type": "address[]"
        }
      ],
      "stateMutability": "view",
      "type": "function",
      "constant": true
    },
    {
      "inputs": [
        {
          "internalType": "address",
          "name": "account",
          "type": "address"
        }
      ],
      "name": "getRewardsInfoByAccountForAdmin",
      "outputs": [
        {
          "components": [
            {
              "internalType": "address",
              "name": "rewardsToken",
              "type": "address"
            },
            {
              "internalType": "uint256",
              "name": "rewardsAmount",
              "type": "uint256"
            }
          ],
          "internalType": "struct CommunityRewardsApprove.RewardsInfo",
          "name": "",
          "type": "tuple"
        }
      ],
      "stateMutability": "view",
      "type": "function",
      "constant": true
    },
    {
      "inputs": [],
      "name": "getRewardsInfoByAccount",
      "outputs": [
        {
          "components": [
            {
              "internalType": "address",
              "name": "rewardsToken",
              "type": "address"
            },
            {
              "internalType": "uint256",
              "name": "rewardsAmount",
              "type": "uint256"
            }
          ],
          "internalType": "struct CommunityRewardsApprove.RewardsInfo",
          "name": "",
          "type": "tuple"
        }
      ],
      "stateMutability": "view",
      "type": "function",
      "constant": true
    },
    {
      "inputs": [
        {
          "internalType": "address",
          "name": "rewardsToken",
          "type": "address"
        },
        {
          "internalType": "uint256",
          "name": "rewardsAmount",
          "type": "uint256"
        }
      ],
      "name": "updateRewardsAmount",
      "outputs": [],
      "stateMutability": "nonpayable",
      "type": "function"
    },
    {
      "inputs": [
        {
          "components": [
            {
              "internalType": "address",
              "name": "token",
              "type": "address"
            },
            {
              "internalType": "uint256",
              "name": "amount",
              "type": "uint256"
            }
          ],
          "internalType": "struct CommunityRewardsApprove.ReportInfo[]",
          "name": "list",
          "type": "tuple[]"
        }
      ],
      "name": "updateRewardsList",
      "outputs": [],
      "stateMutability": "nonpayable",
      "type": "function"
    },
    {
      "inputs": [
        {
          "internalType": "address",
          "name": "rewardsToken",
          "type": "address"
        },
        {
          "internalType": "uint256",
          "name": "releaseAmount",
          "type": "uint256"
        }
      ],
      "name": "releaseByAdmin",
      "outputs": [],
      "stateMutability": "nonpayable",
      "type": "function"
    },
    {
      "inputs": [
        {
          "internalType": "uint256",
          "name": "releaseAmount",
          "type": "uint256"
        }
      ],
      "name": "release",
      "outputs": [],
      "stateMutability": "nonpayable",
      "type": "function"
    },
    {
      "inputs": [
        {
          "internalType": "address payable",
          "name": "recipientToken",
          "type": "address"
        }
      ],
      "name": "killSelf",
      "outputs": [],
      "stateMutability": "nonpayable",
      "type": "function"
    }
  ],
  "bytecode": "0x60806040523480156200001157600080fd5b50604051620029de380380620029de8339818101604052810190620000379190620002c1565b620000576200004b620001c760201b60201c565b620001cf60201b60201c565b600073ffffffffffffffffffffffffffffffffffffffff168273ffffffffffffffffffffffffffffffffffffffff161415620000ca576040517f08c379a0000000000000000000000000000000000000000000000000000000008152600401620000c19062000372565b60405180910390fd5b600073ffffffffffffffffffffffffffffffffffffffff168173ffffffffffffffffffffffffffffffffffffffff1614156200013d576040517f08c379a0000000000000000000000000000000000000000000000000000000008152600401620001349062000350565b60405180910390fd5b81600160006101000a81548173ffffffffffffffffffffffffffffffffffffffff021916908373ffffffffffffffffffffffffffffffffffffffff16021790555080600260006101000a81548173ffffffffffffffffffffffffffffffffffffffff021916908373ffffffffffffffffffffffffffffffffffffffff1602179055505050620004bf565b600033905090565b60008060009054906101000a900473ffffffffffffffffffffffffffffffffffffffff169050816000806101000a81548173ffffffffffffffffffffffffffffffffffffffff021916908373ffffffffffffffffffffffffffffffffffffffff1602179055508173ffffffffffffffffffffffffffffffffffffffff168173ffffffffffffffffffffffffffffffffffffffff167f8be0079c531659141344cd1fd0a4f28419497f9722a3daafe3b4186f6b6457e060405160405180910390a35050565b600081519050620002a4816200048b565b92915050565b600081519050620002bb81620004a5565b92915050565b60008060408385031215620002d557600080fd5b6000620002e585828601620002aa565b9250506020620002f88582860162000293565b9150509250929050565b60006200031160368362000394565b91506200031e82620003ed565b604082019050919050565b600062000338602b8362000394565b915062000345826200043c565b604082019050919050565b600060208201905081810360008301526200036b8162000302565b9050919050565b600060208201905081810360008301526200038d8162000329565b9050919050565b600082825260208201905092915050565b6000620003b282620003cd565b9050919050565b6000620003c682620003a5565b9050919050565b600073ffffffffffffffffffffffffffffffffffffffff82169050919050565b7f436f6d6d756e697479526577617264733a2054686520746f6b656e2077616c6c60008201527f657420697320746865207a65726f206164647265737300000000000000000000602082015250565b7f436f6d6d756e697479526577617264733a20746f6b656e20697320746865207a60008201527f65726f2061646472657373000000000000000000000000000000000000000000602082015250565b6200049681620003a5565b8114620004a257600080fd5b50565b620004b081620003b9565b8114620004bc57600080fd5b50565b61250f80620004cf6000396000f3fe608060405234801561001057600080fd5b50600436106100cf5760003560e01c8063715018a61161008c578063b61fc27111610066578063b61fc271146101d8578063bff99c6c146101f4578063f2fde38b14610212578063fc0c546a1461022e576100cf565b8063715018a614610180578063783264bb1461018a5780638da5cb5b146101ba576100cf565b80630d59655b146100d457806321b4437b146100f057806337bdc99b1461010e5780633a507d7d1461012a5780635f5d5f001461014657806366ed432414610164575b600080fd5b6100ee60048036038101906100e99190611845565b61024c565b005b6100f861054c565b6040516101059190611e69565b60405180910390f35b610128600480360381019061012391906118eb565b610603565b005b610144600480360381019061013f919061181c565b610610565b005b61014e6107a1565b60405161015b9190611caa565b60405180910390f35b61017e60048036038101906101799190611845565b6108ab565b005b610188610935565b005b6101a4600480360381019061019f91906117f3565b6109bd565b6040516101b19190611e69565b60405180910390f35b6101c2610af2565b6040516101cf9190611c2f565b60405180910390f35b6101f260048036038101906101ed9190611881565b610b1b565b005b6101fc610c64565b6040516102099190611c2f565b60405180910390f35b61022c600480360381019061022791906117f3565b610c8a565b005b610236610d82565b6040516102439190611ccc565b60405180910390f35b610254610da8565b73ffffffffffffffffffffffffffffffffffffffff16610272610af2565b73ffffffffffffffffffffffffffffffffffffffff16146102c8576040517f08c379a00000000000000000000000000000000000000000000000000000000081526004016102bf90611de9565b60405180910390fd5b600073ffffffffffffffffffffffffffffffffffffffff168273ffffffffffffffffffffffffffffffffffffffff161415610338576040517f08c379a000000000000000000000000000000000000000000000000000000000815260040161032f90611d29565b60405180910390fd5b600081101561037c576040517f08c379a000000000000000000000000000000000000000000000000000000000815260040161037390611da9565b60405180910390fd5b6000600460008473ffffffffffffffffffffffffffffffffffffffff1673ffffffffffffffffffffffffffffffffffffffff1681526020019081526020016000209050600073ffffffffffffffffffffffffffffffffffffffff168160000160009054906101000a900473ffffffffffffffffffffffffffffffffffffffff1673ffffffffffffffffffffffffffffffffffffffff161461042557818160010181905550610547565b60405180604001604052808473ffffffffffffffffffffffffffffffffffffffff16815260200183815250600460008573ffffffffffffffffffffffffffffffffffffffff1673ffffffffffffffffffffffffffffffffffffffff16815260200190815260200160002060008201518160000160006101000a81548173ffffffffffffffffffffffffffffffffffffffff021916908373ffffffffffffffffffffffffffffffffffffffff160217905550602082015181600101559050506003839080600181540180825580915050600190039060005260206000200160009091909190916101000a81548173ffffffffffffffffffffffffffffffffffffffff021916908373ffffffffffffffffffffffffffffffffffffffff1602179055505b505050565b610554611678565b600460003373ffffffffffffffffffffffffffffffffffffffff1673ffffffffffffffffffffffffffffffffffffffff1681526020019081526020016000206040518060400160405290816000820160009054906101000a900473ffffffffffffffffffffffffffffffffffffffff1673ffffffffffffffffffffffffffffffffffffffff1673ffffffffffffffffffffffffffffffffffffffff168152602001600182015481525050905090565b61060d3382610db0565b50565b610618610da8565b73ffffffffffffffffffffffffffffffffffffffff16610636610af2565b73ffffffffffffffffffffffffffffffffffffffff161461068c576040517f08c379a000000000000000000000000000000000000000000000000000000000815260040161068390611de9565b60405180910390fd5b6000600160009054906101000a900473ffffffffffffffffffffffffffffffffffffffff1673ffffffffffffffffffffffffffffffffffffffff166370a08231306040518263ffffffff1660e01b81526004016106e99190611c2f565b60206040518083038186803b15801561070157600080fd5b505afa158015610715573d6000803e3d6000fd5b505050506040513d601f19601f820116820180604052508101906107399190611914565b90506107888282600160009054906101000a900473ffffffffffffffffffffffffffffffffffffffff1673ffffffffffffffffffffffffffffffffffffffff166110269092919063ffffffff16565b8173ffffffffffffffffffffffffffffffffffffffff16ff5b60606107ab610da8565b73ffffffffffffffffffffffffffffffffffffffff166107c9610af2565b73ffffffffffffffffffffffffffffffffffffffff161461081f576040517f08c379a000000000000000000000000000000000000000000000000000000000815260040161081690611de9565b60405180910390fd5b60038054806020026020016040519081016040528092919081815260200182805480156108a157602002820191906000526020600020905b8160009054906101000a900473ffffffffffffffffffffffffffffffffffffffff1673ffffffffffffffffffffffffffffffffffffffff1681526020019060010190808311610857575b5050505050905090565b6108b3610da8565b73ffffffffffffffffffffffffffffffffffffffff166108d1610af2565b73ffffffffffffffffffffffffffffffffffffffff1614610927576040517f08c379a000000000000000000000000000000000000000000000000000000000815260040161091e90611de9565b60405180910390fd5b6109318282610db0565b5050565b61093d610da8565b73ffffffffffffffffffffffffffffffffffffffff1661095b610af2565b73ffffffffffffffffffffffffffffffffffffffff16146109b1576040517f08c379a00000000000000000000000000000000000000000000000000000000081526004016109a890611de9565b60405180910390fd5b6109bb60006110ac565b565b6109c5611678565b6109cd610da8565b73ffffffffffffffffffffffffffffffffffffffff166109eb610af2565b73ffffffffffffffffffffffffffffffffffffffff1614610a41576040517f08c379a0000000000000000000000000000000000000000000000000000000008152600401610a3890611de9565b60405180910390fd5b600460008373ffffffffffffffffffffffffffffffffffffffff1673ffffffffffffffffffffffffffffffffffffffff1681526020019081526020016000206040518060400160405290816000820160009054906101000a900473ffffffffffffffffffffffffffffffffffffffff1673ffffffffffffffffffffffffffffffffffffffff1673ffffffffffffffffffffffffffffffffffffffff1681526020016001820154815250509050919050565b60008060009054906101000a900473ffffffffffffffffffffffffffffffffffffffff16905090565b610b23610da8565b73ffffffffffffffffffffffffffffffffffffffff16610b41610af2565b73ffffffffffffffffffffffffffffffffffffffff1614610b97576040517f08c379a0000000000000000000000000000000000000000000000000000000008152600401610b8e90611de9565b60405180910390fd5b6000815111610bdb576040517f08c379a0000000000000000000000000000000000000000000000000000000008152600401610bd290611d49565b60405180910390fd5b60005b8151811015610c60576000828281518110610c22577f4e487b7100000000000000000000000000000000000000000000000000000000600052603260045260246000fd5b60200260200101519050600081602001511115610c4c57610c4b81600001518260200151611170565b5b508080610c58906120ac565b915050610bde565b5050565b600260009054906101000a900473ffffffffffffffffffffffffffffffffffffffff1681565b610c92610da8565b73ffffffffffffffffffffffffffffffffffffffff16610cb0610af2565b73ffffffffffffffffffffffffffffffffffffffff1614610d06576040517f08c379a0000000000000000000000000000000000000000000000000000000008152600401610cfd90611de9565b60405180910390fd5b600073ffffffffffffffffffffffffffffffffffffffff168173ffffffffffffffffffffffffffffffffffffffff161415610d76576040517f08c379a0000000000000000000000000000000000000000000000000000000008152600401610d6d90611d69565b60405180910390fd5b610d7f816110ac565b50565b600160009054906101000a900473ffffffffffffffffffffffffffffffffffffffff1681565b600033905090565b600073ffffffffffffffffffffffffffffffffffffffff168273ffffffffffffffffffffffffffffffffffffffff161415610e20576040517f08c379a0000000000000000000000000000000000000000000000000000000008152600401610e1790611d09565b60405180910390fd5b6000600460008473ffffffffffffffffffffffffffffffffffffffff1673ffffffffffffffffffffffffffffffffffffffff168152602001908152602001600020905060008211610ea6576040517f08c379a0000000000000000000000000000000000000000000000000000000008152600401610e9d90611d89565b60405180910390fd5b6000816001015411610eed576040517f08c379a0000000000000000000000000000000000000000000000000000000008152600401610ee490611d89565b60405180910390fd5b8060010154821115610f34576040517f08c379a0000000000000000000000000000000000000000000000000000000008152600401610f2b90611e49565b60405180910390fd5b610fa5600260009054906101000a900473ffffffffffffffffffffffffffffffffffffffff168484600160009054906101000a900473ffffffffffffffffffffffffffffffffffffffff1673ffffffffffffffffffffffffffffffffffffffff16611356909392919063ffffffff16565b610fbc8282600101546113df90919063ffffffff16565b81600101819055507f9d88a67cd3d48d928dc052f32a5c65ff8bb2db4b6bc7d31fe81ae2da54f496f2600260009054906101000a900473ffffffffffffffffffffffffffffffffffffffff16848460405161101993929190611c4a565b60405180910390a1505050565b6110a78363a9059cbb60e01b8484604051602401611045929190611c81565b604051602081830303815290604052907bffffffffffffffffffffffffffffffffffffffffffffffffffffffff19166020820180517bffffffffffffffffffffffffffffffffffffffffffffffffffffffff83818316178352505050506113f5565b505050565b60008060009054906101000a900473ffffffffffffffffffffffffffffffffffffffff169050816000806101000a81548173ffffffffffffffffffffffffffffffffffffffff021916908373ffffffffffffffffffffffffffffffffffffffff1602179055508173ffffffffffffffffffffffffffffffffffffffff168173ffffffffffffffffffffffffffffffffffffffff167f8be0079c531659141344cd1fd0a4f28419497f9722a3daafe3b4186f6b6457e060405160405180910390a35050565b6000600460008473ffffffffffffffffffffffffffffffffffffffff1673ffffffffffffffffffffffffffffffffffffffff1681526020019081526020016000209050600073ffffffffffffffffffffffffffffffffffffffff168160000160009054906101000a900473ffffffffffffffffffffffffffffffffffffffff1673ffffffffffffffffffffffffffffffffffffffff161461122f576112228282600101546114bc90919063ffffffff16565b8160010181905550611351565b60405180604001604052808473ffffffffffffffffffffffffffffffffffffffff16815260200183815250600460008573ffffffffffffffffffffffffffffffffffffffff1673ffffffffffffffffffffffffffffffffffffffff16815260200190815260200160002060008201518160000160006101000a81548173ffffffffffffffffffffffffffffffffffffffff021916908373ffffffffffffffffffffffffffffffffffffffff160217905550602082015181600101559050506003839080600181540180825580915050600190039060005260206000200160009091909190916101000a81548173ffffffffffffffffffffffffffffffffffffffff021916908373ffffffffffffffffffffffffffffffffffffffff1602179055505b505050565b6113d9846323b872dd60e01b85858560405160240161137793929190611c4a565b604051602081830303815290604052907bffffffffffffffffffffffffffffffffffffffffffffffffffffffff19166020820180517bffffffffffffffffffffffffffffffffffffffffffffffffffffffff83818316178352505050506113f5565b50505050565b600081836113ed9190611f96565b905092915050565b6000611457826040518060400160405280602081526020017f5361666545524332303a206c6f772d6c6576656c2063616c6c206661696c65648152508573ffffffffffffffffffffffffffffffffffffffff166114d29092919063ffffffff16565b90506000815111156114b7578080602001905181019061147791906118c2565b6114b6576040517f08c379a00000000000000000000000000000000000000000000000000000000081526004016114ad90611e29565b60405180910390fd5b5b505050565b600081836114ca9190611f40565b905092915050565b60606114e184846000856114ea565b90509392505050565b60608247101561152f576040517f08c379a000000000000000000000000000000000000000000000000000000000815260040161152690611dc9565b60405180910390fd5b611538856115fe565b611577576040517f08c379a000000000000000000000000000000000000000000000000000000000815260040161156e90611e09565b60405180910390fd5b6000808673ffffffffffffffffffffffffffffffffffffffff1685876040516115a09190611c18565b60006040518083038185875af1925050503d80600081146115dd576040519150601f19603f3d011682016040523d82523d6000602084013e6115e2565b606091505b50915091506115f2828286611611565b92505050949350505050565b600080823b905060008111915050919050565b6060831561162157829050611671565b6000835111156116345782518084602001fd5b816040517f08c379a00000000000000000000000000000000000000000000000000000000081526004016116689190611ce7565b60405180910390fd5b9392505050565b6040518060400160405280600073ffffffffffffffffffffffffffffffffffffffff168152602001600081525090565b60006116bb6116b684611ea9565b611e84565b905080838252602082019050828560408602820111156116da57600080fd5b60005b8581101561170a57816116f0888261177d565b8452602084019350604083019250506001810190506116dd565b5050509392505050565b6000813590506117238161247d565b92915050565b60008135905061173881612494565b92915050565b600082601f83011261174f57600080fd5b813561175f8482602086016116a8565b91505092915050565b600081519050611777816124ab565b92915050565b60006040828403121561178f57600080fd5b6117996040611e84565b905060006117a984828501611714565b60008301525060206117bd848285016117c9565b60208301525092915050565b6000813590506117d8816124c2565b92915050565b6000815190506117ed816124c2565b92915050565b60006020828403121561180557600080fd5b600061181384828501611714565b91505092915050565b60006020828403121561182e57600080fd5b600061183c84828501611729565b91505092915050565b6000806040838503121561185857600080fd5b600061186685828601611714565b9250506020611877858286016117c9565b9150509250929050565b60006020828403121561189357600080fd5b600082013567ffffffffffffffff8111156118ad57600080fd5b6118b98482850161173e565b91505092915050565b6000602082840312156118d457600080fd5b60006118e284828501611768565b91505092915050565b6000602082840312156118fd57600080fd5b600061190b848285016117c9565b91505092915050565b60006020828403121561192657600080fd5b6000611934848285016117de565b91505092915050565b60006119498383611955565b60208301905092915050565b61195e81611fca565b82525050565b61196d81611fca565b82525050565b600061197e82611ee5565b6119888185611f13565b935061199383611ed5565b8060005b838110156119c45781516119ab888261193d565b97506119b683611f06565b925050600181019050611997565b5085935050505092915050565b60006119dc82611ef0565b6119e68185611f24565b93506119f6818560208601612048565b80840191505092915050565b611a0b81612024565b82525050565b6000611a1c82611efb565b611a268185611f2f565b9350611a36818560208601612048565b611a3f81612153565b840191505092915050565b6000611a57602f83611f2f565b9150611a6282612164565b604082019050919050565b6000611a7a602c83611f2f565b9150611a85826121b3565b604082019050919050565b6000611a9d602483611f2f565b9150611aa882612202565b604082019050919050565b6000611ac0602683611f2f565b9150611acb82612251565b604082019050919050565b6000611ae3602583611f2f565b9150611aee826122a0565b604082019050919050565b6000611b06602f83611f2f565b9150611b11826122ef565b604082019050919050565b6000611b29602683611f2f565b9150611b348261233e565b604082019050919050565b6000611b4c602083611f2f565b9150611b578261238d565b602082019050919050565b6000611b6f601d83611f2f565b9150611b7a826123b6565b602082019050919050565b6000611b92602a83611f2f565b9150611b9d826123df565b604082019050919050565b6000611bb5603b83611f2f565b9150611bc08261242e565b604082019050919050565b604082016000820151611be16000850182611955565b506020820151611bf46020850182611bfa565b50505050565b611c038161201a565b82525050565b611c128161201a565b82525050565b6000611c2482846119d1565b915081905092915050565b6000602082019050611c446000830184611964565b92915050565b6000606082019050611c5f6000830186611964565b611c6c6020830185611964565b611c796040830184611c09565b949350505050565b6000604082019050611c966000830185611964565b611ca36020830184611c09565b9392505050565b60006020820190508181036000830152611cc48184611973565b905092915050565b6000602082019050611ce16000830184611a02565b92915050565b60006020820190508181036000830152611d018184611a11565b905092915050565b60006020820190508181036000830152611d2281611a4a565b9050919050565b60006020820190508181036000830152611d4281611a6d565b9050919050565b60006020820190508181036000830152611d6281611a90565b9050919050565b60006020820190508181036000830152611d8281611ab3565b9050919050565b60006020820190508181036000830152611da281611ad6565b9050919050565b60006020820190508181036000830152611dc281611af9565b9050919050565b60006020820190508181036000830152611de281611b1c565b9050919050565b60006020820190508181036000830152611e0281611b3f565b9050919050565b60006020820190508181036000830152611e2281611b62565b9050919050565b60006020820190508181036000830152611e4281611b85565b9050919050565b60006020820190508181036000830152611e6281611ba8565b9050919050565b6000604082019050611e7e6000830184611bcb565b92915050565b6000611e8e611e9f565b9050611e9a828261207b565b919050565b6000604051905090565b600067ffffffffffffffff821115611ec457611ec3612124565b5b602082029050602081019050919050565b6000819050602082019050919050565b600081519050919050565b600081519050919050565b600081519050919050565b6000602082019050919050565b600082825260208201905092915050565b600081905092915050565b600082825260208201905092915050565b6000611f4b8261201a565b9150611f568361201a565b9250827fffffffffffffffffffffffffffffffffffffffffffffffffffffffffffffffff03821115611f8b57611f8a6120f5565b5b828201905092915050565b6000611fa18261201a565b9150611fac8361201a565b925082821015611fbf57611fbe6120f5565b5b828203905092915050565b6000611fd582611ffa565b9050919050565b6000611fe782611ffa565b9050919050565b60008115159050919050565b600073ffffffffffffffffffffffffffffffffffffffff82169050919050565b6000819050919050565b600061202f82612036565b9050919050565b600061204182611ffa565b9050919050565b60005b8381101561206657808201518184015260208101905061204b565b83811115612075576000848401525b50505050565b61208482612153565b810181811067ffffffffffffffff821117156120a3576120a2612124565b5b80604052505050565b60006120b78261201a565b91507fffffffffffffffffffffffffffffffffffffffffffffffffffffffffffffffff8214156120ea576120e96120f5565b5b600182019050919050565b7f4e487b7100000000000000000000000000000000000000000000000000000000600052601160045260246000fd5b7f4e487b7100000000000000000000000000000000000000000000000000000000600052604160045260246000fd5b6000601f19601f8301169050919050565b7f436f6d6d756e697479526577617264733a2072656c656173652066726f6d207460008201527f6865207a65726f20616464726573730000000000000000000000000000000000602082015250565b7f436f6d6d756e697479526577617264733a2072657761726420746f207468652060008201527f7a65726f20616464726573730000000000000000000000000000000000000000602082015250565b7f436f6d6d756e697479526577617264733a206c6973742061727261792069732060008201527f6e756c6c00000000000000000000000000000000000000000000000000000000602082015250565b7f4f776e61626c653a206e6577206f776e657220697320746865207a65726f206160008201527f6464726573730000000000000000000000000000000000000000000000000000602082015250565b7f436f6d6d756e697479526577617264733a207468652062616c616e636520697360008201527f207a65726f000000000000000000000000000000000000000000000000000000602082015250565b7f436f6d6d756e697479526577617264733a207468652062616c616e636520697360008201527f206c657373207468616e207a65726f0000000000000000000000000000000000602082015250565b7f416464726573733a20696e73756666696369656e742062616c616e636520666f60008201527f722063616c6c0000000000000000000000000000000000000000000000000000602082015250565b7f4f776e61626c653a2063616c6c6572206973206e6f7420746865206f776e6572600082015250565b7f416464726573733a2063616c6c20746f206e6f6e2d636f6e7472616374000000600082015250565b7f5361666545524332303a204552433230206f7065726174696f6e20646964206e60008201527f6f74207375636365656400000000000000000000000000000000000000000000602082015250565b7f436f6d6d756e697479526577617264733a20746865207769746864726177616c60008201527f20616d6f756e742065786365656473207468652062616c616e63650000000000602082015250565b61248681611fca565b811461249157600080fd5b50565b61249d81611fdc565b81146124a857600080fd5b50565b6124b481611fee565b81146124bf57600080fd5b50565b6124cb8161201a565b81146124d657600080fd5b5056fea264697066735822122040260a663f2ff195e71ae145f5ffa1bfa4499685fcbd88cdd2e6b006166b795164736f6c63430008040033",
  "immutableReferences": {},
  "source": "// SPDX-License-Identifier: MIT\r\npragma solidity ^0.8.0;\r\n\r\nimport \"@openzeppelin/contracts/access/Ownable.sol\";\r\nimport \"@openzeppelin/contracts/utils/math/SafeMath.sol\";\r\nimport \"@openzeppelin/contracts/token/ERC20/utils/SafeERC20.sol\";\r\n\r\ncontract CommunityRewardsApprove is Ownable {\r\n    using SafeMath for uint256;\r\n    using SafeERC20 for IERC20;\r\n\r\n    event releaseEvent(address wallet, address account, uint256 amount);\r\n\r\n    IERC20 public token;\r\n    address public tokenWallet;\r\n\r\n    address[] private _memberList;\r\n\r\n    struct RewardsInfo {\r\n        address rewardsToken;\r\n        uint256 rewardsAmount;\r\n    }\r\n\r\n    struct ReportInfo {\r\n        address token;\r\n        uint256 amount;\r\n    }\r\n\r\n    mapping(address => RewardsInfo) private _rewardsList;\r\n\r\n    constructor(IERC20 _token, address _tokenWallet) Ownable() {\r\n        require(address(_token) != address(0), \"CommunityRewards: token is the zero address\");\r\n        require(_tokenWallet != address(0), \"CommunityRewards: The token wallet is the zero address\");\r\n\r\n        token = _token;\r\n        tokenWallet = _tokenWallet;\r\n    }\r\n\r\n    /**\r\n     * @dev get _memberList\r\n     */\r\n    function getMemberList() public onlyOwner view returns (address[] memory) {\r\n        return _memberList;\r\n    }\r\n\r\n    /**\r\n     * @dev get rewards info from the rewardsList\r\n     */\r\n    function getRewardsInfoByAccountForAdmin(address account) public onlyOwner view returns (RewardsInfo memory) {\r\n        return _rewardsList[account];\r\n    }\r\n\r\n    /**\r\n     * @dev get rewards info from the rewardsList\r\n     */\r\n    function getRewardsInfoByAccount() public view returns (RewardsInfo memory) {\r\n        return _rewardsList[msg.sender];\r\n    }\r\n\r\n    /**\r\n     * @dev upload account rewardsAmount\r\n     * @param rewardsToken the token of rewards\r\n     * @param rewardsAmount the amount of update\r\n     */\r\n    function updateRewardsAmount(address rewardsToken, uint256 rewardsAmount) public onlyOwner {\r\n        // Not is 0x address\r\n        require(rewardsToken != address(0), 'CommunityRewards: reward to the zero address');\r\n        // the rewardsAmount must be gte zero\r\n        require(rewardsAmount >= 0, 'CommunityRewards: the balance is less than zero');\r\n\r\n        RewardsInfo storage info = _rewardsList[rewardsToken];\r\n        if (info.rewardsToken != address(0)) {\r\n            info.rewardsAmount = rewardsAmount;\r\n        } else {\r\n            _rewardsList[rewardsToken] = RewardsInfo(rewardsToken, rewardsAmount);\r\n            _memberList.push(rewardsToken);\r\n        }\r\n    }\r\n\r\n    /**\r\n     * @dev upload report to update rewards list data\r\n     * @param list upload data array\r\n     */\r\n    function updateRewardsList(ReportInfo[] memory list) public onlyOwner {\r\n        require(list.length > 0, \"CommunityRewards: list array is null\");\r\n        for (uint i = 0; i < list.length; i++) {\r\n            ReportInfo memory reportInfo = list[i];\r\n            if (reportInfo.amount > 0) {\r\n                _addRewardsTokens(reportInfo.token, reportInfo.amount);\r\n            }\r\n        }\r\n    }\r\n\r\n    /**\r\n     * @dev add rewards list data\r\n     * @param rewardsToken the token of rewards\r\n     * @param rewardsAmount the amount of update\r\n     */\r\n    function _addRewardsTokens(address rewardsToken, uint256 rewardsAmount) internal {\r\n        RewardsInfo storage info = _rewardsList[rewardsToken];\r\n        if (info.rewardsToken != address(0)) {\r\n            info.rewardsAmount = info.rewardsAmount.add(rewardsAmount);\r\n        } else {\r\n            _rewardsList[rewardsToken] = RewardsInfo(rewardsToken, rewardsAmount);\r\n            _memberList.push(rewardsToken);\r\n        }\r\n    }\r\n\r\n    /**\r\n     * @dev admin release\r\n     * @param rewardsToken the token of rewards\r\n     * @param releaseAmount the amount of release\r\n     */\r\n    function releaseByAdmin(address rewardsToken, uint256 releaseAmount) public onlyOwner {\r\n        _release(rewardsToken, releaseAmount);\r\n    }\r\n\r\n    /**\r\n     * @dev self release\r\n     * @param releaseAmount the amount of release\r\n     */\r\n    function release(uint256 releaseAmount) public {\r\n        _release(msg.sender, releaseAmount);\r\n    }\r\n\r\n    /**\r\n     * @dev common release function\r\n     * @param rewardsToken the token of rewards\r\n     * @param releaseAmount the amount of release\r\n     */\r\n    function _release(address rewardsToken, uint256 releaseAmount) internal {\r\n        // Not is 0x address\r\n        require(rewardsToken != address(0), 'CommunityRewards: release from the zero address');\r\n        RewardsInfo storage info = _rewardsList[rewardsToken];\r\n        // the releaseAmount must be gt zero\r\n        require(releaseAmount > 0, 'CommunityRewards: the balance is zero');\r\n        // the balance must be gt zero\r\n        require(info.rewardsAmount > 0, 'CommunityRewards: the balance is zero');\r\n        // releaseAmount must be lt or equal rewardsAmount\r\n        require(releaseAmount <= info.rewardsAmount, 'CommunityRewards: the withdrawal amount exceeds the balance');\r\n\r\n        token.safeTransferFrom(tokenWallet, rewardsToken, releaseAmount);\r\n        info.rewardsAmount = info.rewardsAmount.sub(releaseAmount);\r\n\r\n        emit releaseEvent(tokenWallet, rewardsToken, releaseAmount);\r\n    }\r\n\r\n    function killSelf(address payable recipientToken) public onlyOwner {\r\n        uint256 contractBalance = token.balanceOf(address(this));\r\n        token.safeTransfer(recipientToken, contractBalance);\r\n\r\n        selfdestruct(recipientToken);\r\n    }\r\n}\r\n",
  "sourcePath": "D:\\Workspaces\\DaoswapDex\\daoswapdex-heco-testnet\\core-rewards\\contracts\\CommunityRewardsApprove.sol",
  "compiler": {
    "name": "solc",
    "version": "0.8.4+commit.c7e474f2.Emscripten.clang"
  },
  "schemaVersion": "3.4.3",
  "updatedAt": "2021-10-28T14:48:29.975Z",
  "networkType": "ethereum",
  "devdoc": {
    "kind": "dev",
    "methods": {
      "getMemberList()": {
        "details": "get _memberList"
      },
      "getRewardsInfoByAccount()": {
        "details": "get rewards info from the rewardsList"
      },
      "getRewardsInfoByAccountForAdmin(address)": {
        "details": "get rewards info from the rewardsList"
      },
      "owner()": {
        "details": "Returns the address of the current owner."
      },
      "release(uint256)": {
        "details": "self release",
        "params": {
          "releaseAmount": "the amount of release"
        }
      },
      "releaseByAdmin(address,uint256)": {
        "details": "admin release",
        "params": {
          "releaseAmount": "the amount of release",
          "rewardsToken": "the token of rewards"
        }
      },
      "renounceOwnership()": {
        "details": "Leaves the contract without owner. It will not be possible to call `onlyOwner` functions anymore. Can only be called by the current owner. NOTE: Renouncing ownership will leave the contract without an owner, thereby removing any functionality that is only available to the owner."
      },
      "transferOwnership(address)": {
        "details": "Transfers ownership of the contract to a new account (`newOwner`). Can only be called by the current owner."
      },
      "updateRewardsAmount(address,uint256)": {
        "details": "upload account rewardsAmount",
        "params": {
          "rewardsAmount": "the amount of update",
          "rewardsToken": "the token of rewards"
        }
      },
      "updateRewardsList((address,uint256)[])": {
        "details": "upload report to update rewards list data",
        "params": {
          "list": "upload data array"
        }
      }
    },
    "version": 1
  },
  "userdoc": {
    "kind": "user",
    "methods": {},
    "version": 1
  }
}